:020000040800F2
:10000000E006002089010008E9130008BD1100087E
:10001000091300088F020008A31600080000000062
:10002000000000000000000000000000ED130008C8
:100030009102000800000000EB130008EF13000815
:10004000A3010008A3010008A3010008A301000800
:10005000A3010008A3010008A3010008A3010008F0
:10006000A3010008A3010008A3010008A3010008E0
:10007000A3010008A3010008A3010008A3010008D0
:10008000A3010008A3010008A3010008A3010008C0
:10009000A3010008A3010008A3010008A3010008B0
:1000A000A3010008A3010008A301000855140008DB
:1000B000A3010008A3010008A3010008A301000890
:1000C000A3010008A3010008A3010008A301000880
:1000D000A3010008A3010008A3010008A301000870
:1000E000A3010008A3010008A301000800F002F822
:1000F00000F03AF80AA090E8000C82448344AAF188
:100100000107DA4501D100F02FF8AFF2090EBAE885
:100110000F0013F0010F18BFFB1A43F0010318473B
:10012000F81A0000181B0000103A24BF78C878C1E4
:10013000FAD8520724BF30C830C144BF04680C60ED
:10014000704700000023002400250026103A28BF35
:1001500078C1FBD8520728BF30C148BF0B60704739
:100160001FB51FBD10B510BD00F058F81146FFF7C0
:10017000F7FF01F0A7FA00F076F803B4FFF7F2FFFB
:1001800003BC00F07DF8000009488047094800479B
:10019000FEE7FEE7FEE7FEE7FEE7FEE7FEE7FEE737
:1001A000FEE7FEE704480549054A064B7047000094
:1001B00051140008ED000008E0000020E0060020D7
:1001C000E0020020E00200204FF0000200B51346DC
:1001D00094469646203922BFA0E80C50A0E80C5067
:1001E000B1F12001BFF4F7AF090728BFA0E80C5018
:1001F00048BF0CC05DF804EB890028BF40F8042B11
:1002000008BF704748BF20F8022B11F0804F18BF7D
:1002100000F8012B7047704770477047754600F033
:100220002BF8AE4605006946534620F00700854688
:1002300018B020B5FFF7B6FFBDE820404FF000062C
:100240004FF000074FF000084FF0000B21F00701BE
:10025000AC46ACE8C009ACE8C009ACE8C009ACE801
:10026000C0098D46704710B50446AFF300802046A4
:10027000BDE81040FFF781BF0048704780000020B4
:1002800001491820ABBEFEE7260002007047FEE7DA
:100290007047000070B5044600F004F90546601C84
:1002A00002D004480078044400F0FCF8401BA0424F
:1002B000FAD370BD000000202DE9F84FDFF8B891A7
:1002C0000024A9F1040B23460F2709F1040AABF11E
:1002D000040EC9E00125A5402A40AA427DD1674EFF
:1002E000D1F804C0ACEB0608B44532D014DCBCF144
:1002F000030F3AD009DCBCF1000F2AD0BCF1010F8A
:100300001CD0BCF1020F31D11DE0BCF1110F17D090
:10031000BCF1120F2AD119E0B8F5881F19D006DCFC
:10032000B8F5803F15D0B8F5801F1FD111E0B8F5A2
:10033000001F0ED0B8F5041F18D10AE0CB6815E0F5
:10034000CB681B1D12E0CB6808330FE0CB680C3381
:100350000CE08B682BB1012B4FF0080303D04561F3
:1003600004E0042302E0056100E00023FF2A01D835
:10037000064601E000F104064FEA840501D9A5F123
:100380002005D6F8008007FA05FC28EA0C0803FAD5
:1003900005F548EA0508C6F800804D68ED0062D50D
:1003A000374DAE6946F00106AE61AD6924F0030633
:1003B00005F001050095334D06EB050CDCF80850FF
:1003C000A607360F07FA06F825EA0805DFF8B88011
:1003D000404503D14FF0000817E044E0DFF8AC805F
:1003E000404502D14FF001080FE0DFF8A4804045FE
:1003F00002D14FF0020808E0DFF89880404502D1B2
:100400004FF0030801E04FF0040808FA06F848EA44
:100410000508CCF808804D68D9F80060ED024D461B
:1004200001D5164300E096432E604D68DAF800606F
:10043000AD02554601D5164300E096432E604D6847
:10044000DBF80060AD035D4601D5164300E096433E
:100450002E604D68DEF80060ED03754601D5164349
:1004600000E096432E60641C0D682A46E5407FF448
:1004700031AFBDE8F88F0000080401400000111002
:10048000001002400000014000080140000C014043
:1004900000100140001401400AB1016170470904D5
:1004A000FBE7000001488068704700000000002062
:1004B0000248816802781144816070470000002082
:1004C000074810B5016841F010010160032000F0F9
:1004D00075F80F2000F006F800F024F8002010BD99
:1004E0000020024070B50D4D04464FF47A71287813
:1004F000B1FBF0F00A490968B1FBF0F000F0BCFA7A
:1005000048B9102C07D200222146501E00F036F8C0
:1005100000206C6070BD012070BD00000000002054
:100520000C0000200C4808B5816941F0010181618F
:10053000816901F001010091C16941F08051C161FF
:10054000C06900F0805000900448416821F0E061EB
:1005500041F00071416008BD001002400000014000
:10056000002809DB00F01F020121914040098000B2
:1005700000F1E020C0F8001170470000F0B40E4B0D
:100580001B680C46C3F30223C3F10705042D00D9F1
:100590000425191D072901D2002300E0DB1E0126D6
:1005A00006FA05F1491E214099409E40761E1640EC
:1005B0003143F0BC01F076B80CED00E0064900F0E4
:1005C000070208684FF6FF03184040EA0220034A7A
:1005D00010430860704700000CED00E00000FA05D1
:1005E0002DE9F0470F46050061D0434E306800F01A
:1005F0000700B84209D2306820F007003843306065
:10060000306800F00700B84251D128683B4C8107A0
:1006100012D5400703D5606840F4E0606060287838
:10062000000703D5606840F4605060606068A968A6
:1006300020F0F000084360602878C00728D0686880
:10064000012810D02168022810D0890700292EDA4D
:10065000616821F0030101436160FFF723FF8046D9
:1006600041F288390DE021688903EFE78901EDE760
:10067000FFF718FFA0EB0801494502D90320BDE8A8
:10068000F0876068696800F00C00B0EB810FEFD173
:10069000306800F00700B8420BD9306820F007003E
:1006A00038433060306800F00700B84201D00120C4
:1006B000E5E72878400705D56068E96820F4E06040
:1006C000084360602878000706D56068296920F42F
:1006D000605040EAC100606000F018F86168084AA4
:1006E000C1F30311515CC840064908600648006820
:1006F000FFF7F8FE0020C2E7002002400010024091
:10070000081C00080C000020040000200E4A51685C
:100710000E4801F00C03042B11D0082B0FD10C480C
:10072000C1F38343C903C05C0AD55168084AC1F3C9
:100730004041921E515C054A5043B0FBF1F07047B6
:1007400004494843704700000010024000127A003C
:10075000F81B000800093D002DE9F84F040070D097
:100760002078C04DC00749D06868C0F381000128D7
:1007700007D06868C0F38100022809D16868C00307
:1007800006D52868800339D560680028E7D035E0B1
:100790006068B0F5803F0BD010B1B0F5A02F11D03C
:1007A000286820F480302860286820F4802002E047
:1007B000286840F480302860606890B1FFF772FECE
:1007C00006460AE0286840F480202860F0E700BF71
:1007D000FFF768FE801B642873D828688003F7D56C
:1007E0000CE0FFF75FFE064605E000BFFFF75AFE8C
:1007F000801B6428F0D828688003F7D420789A4EAC
:1008000080074FF001094FF0000839D5686810F0F3
:100810000C0F07D06868C0F38100022809D168680E
:10082000C00306D42868800714D52069012808D1A0
:1008300010E02069B0B1C6F80090FFF733FE07461C
:1008400005E00AE1FFF72EFEC01B0228C4D8286885
:100850008007F7D52868616920F0F80040EAC100F8
:1008600028600DE0C6F80080FFF71CFE074604E094
:10087000FFF718FEC01B022823D828688007F7D48A
:10088000207800072CD57948A169D9B1C0F800902B
:10089000FFF708FE074604E0FFF704FEC01B02282E
:1008A0000FD8686A8007F7D571484FF4FA5100688D
:1008B000B0FBF1F0009000BF0098411E0091FAD209
:1008C0000EE080E0C0F80080FFF7ECFD074604E092
:1008D000FFF7E8FDC01B022875D8686A8007F7D4C7
:1008E0002078400760D5E8690027C00008D4E8698F
:1008F00040F08050E861E869012700F080500090E6
:100900005C480168C90513D40168834641F48071CD
:100910000160FFF7C7FD824606E000BFFFF7C2FD9A
:10092000A0EB0A0064284ED8DBF80000C005F5D51E
:10093000E06801280AD008B1052813D0286A20F001
:1009400001002862286A20F0040002E0286A40F0D2
:1009500001002862E06841F2883B98B1FFF7A2FDF0
:1009600082460BE0286A40F004002862EEE700BFF0
:10097000FFF798FDA0EB0A0159455AD8286A80076D
:10098000F6D50CE0FFF78EFD824605E0FFF78AFD05
:10099000A0EB0A0159454CD8286A8007F6D41FB14C
:1009A000E86920F08050E861E06988B36968C1F3C4
:1009B0008101022944D00228C6F8608004D0FFF7E4
:1009C00071FD044638E034E0FFF76CFD074604E0B3
:1009D000FFF768FDC01B02282BD828688001F7D4D8
:1009E000206AB0F5803F05D16868A16820F4003026
:1009F00008436860D4E908010843696821F4741168
:100A000008436860C6F86090FFF74CFD044606E0B6
:100A100025E000BFFFF746FD001B022809D8286823
:100A20008001F7D51BE000BFFFF73CFD001B02284B
:100A300002D90320BDE8F88F28688001F4D40EE0C5
:100A40000128F7D06868226A00F48031914204D10D
:100A5000616A00F47010884201D00120EAE70020AA
:100A6000E8E70000001002400000424280044242D9
:100A70000C0000200070004010B5401EB0F1807FD7
:100A800001D3012010BD4FF0E02460610F216017F9
:100A900000F008FE0020A06107202061002010BDAA
:100AA0007047704710B590F83C20012A22D00122EF
:100AB00080F83C20CA688C6822F4407222434C685B
:100AC00022F4806222430C6822F4006222430C6903
:100AD00022F4805222434C6922F400522243C96915
:100AE000002322F480420A4301684A6480F83C30C3
:100AF000002010BD022010BD70B590F83C20012AE6
:100B000026D0012480F83C40022280F83D20036872
:100B10005A689D6822F070060A6832435A600D4B8D
:100B200002689A4208D0B2F1804F05D00A4B9A422F
:100B300002D00A4B9A4204D1496825F08003194338
:100B4000916080F83D40002180F83C10084670BD5F
:100B5000022070BD002C014000040040000800404D
:100B600010B5040003D094F83D0010B107E0012057
:100B700010BD002084F83C00204600F01FF8022041
:100B800084F83D00211D206800F06AFC012084F8F3
:100B9000460084F83E0084F83F0084F8400084F862
:100BA000410084F8420084F8430084F8440084F84B
:100BB000450084F83D00002010BD000008B5006825
:100BC0000B49884212D10B48816941F4006181616F
:100BD0008069002200F40060009011461B20FFF79E
:100BE000CDFCBDE808401B20FFF7BABC08BD0000E3
:100BF000002C01400010024070B5044690F83C0003
:100C00000025012817D0012684F83C60022084F8D2
:100C10003D002068826822F0770222F47F428260E1
:100C20000868502838D00DDC20284FD005DC90B360
:100C3000102811D14AE0022070BD302846D040284B
:100C40000AD13BE060282FD070280DD0B0F5805F2E
:100C500003D0B0F5005F12D0012584F83D6000207C
:100C600084F83C00284670BDCB68D1E9012120689A
:100C700000F03FFC2068816841F0770109E0CB6813
:100C8000D1E90121206800F034FC2068816841F43A
:100C900080418160E1E719E0CA684968206800F096
:100CA000DDFC5021206806E0CA684968206800F031
:100CB000E6FC6021206800F026FCCEE7CA6849689F
:100CC000206800F0CBFC40212068F4E72268014650
:100CD0001046F0E770472DE9F04104460068C66809
:100CE00005694FF00007A90713D5B10711D5F91E03
:100CF000016101202077206880698007204602D0AA
:100D0000FFF7E8FF04E000F0A5F8204600F038F90E
:100D10002777680716D5700714D521686FF004008F
:100D20000861022020772068806910F4407F204607
:100D300002D0FFF7CFFF04E000F08CF8204600F06F
:100D40001FF92777280715D5300713D521686FF0CD
:100D500008000861042020772068C06980072046C9
:100D600002D0FFF7B7FF04E000F074F8204600F06F
:100D700007F92777E80616D5F00614D521686FF035
:100D800010000861082020772068C06910F4407FB7
:100D9000204602D0FFF79EFF04E000F05BF82046FB
:100DA00000F0EEF82777E80708D0F00706D02168B2
:100DB0006FF001000861204600F0FEF9280608D512
:100DC000300606D521686FF0800008612046FFF7E5
:100DD00067FE680608D5700606D521686FF04000EA
:100DE0000861204600F0E9F9A8060AD5B00608D542
:100DF00021686FF0200008612046BDE8F041FFF750
:100E000050BEBDE8F081000000B585B00021009122
:100E100001910291039100680B49884212D10B485D
:100E2000816941F0040181618069694600F0040034
:100E300004904FF4807000900220019003900448C9
:100E4000FFF73AFA05B000BD002C01400010024047
:100E500000080140704770B5044690F83C00002639
:100E60000D4601280FD0012084F83C006AB1042A05
:100E70001DD0082A2FD00C2A3FD00126002084F84C
:100E80003C00304670BD022070BD206800F044FB7D
:100E90002068816941F0080181612068816921F041
:100EA00004018161206881692A69114311E0206889
:100EB00000F05AFB2068816941F40061816120687B
:100EC000816921F480618161206881692A6941EA30
:100ED00002218161D2E7206800F072FB2068C169BD
:100EE00041F00801C1612068C16921F00401C161BC
:100EF0002068C1692A69114311E0206800F08CFB69
:100F00002068C16941F40061C1612068C16921F4B0
:100F10008061C1612068C1692A6941EA0221C16119
:100F2000ACE710B5040003D094F83D0010B107E021
:100F3000012010BD002084F83C00204600F01EF87F
:100F4000022084F83D00211D206800F089FA01206C
:100F500084F8460084F83E0084F83F0084F840009E
:100F600084F8410084F8420084F8430084F8440087
:100F700084F8450084F83D00002010BD7047000053
:100F800010B52B4A0168914216D1007F012813D178
:100F9000284C6068401C60606068216888420CD3FF
:100FA0000021A4F1480000F0AFF80122910322488B
:100FB000FFF772FA0020207210BD61681D48A26917
:100FC0004069914205D801212172216A00F0BAFBE3
:100FD00010E02168E269891A6268914217D2032100
:100FE0002172616A00F092FD6061E16800F00EFD1F
:100FF00001D2E06860611148616900F011FC00F005
:10100000D1FCB0F5803F06D34FF6FF7006E002201A
:1010100020722069EEE7642800D26420054A411E50
:10102000483A1368D962D16011684008486310BD1E
:10103000002C014058000020000C014000BADB49A0
:1010400030B500250446022249B1042912D00829EE
:101050003ED094F84100012845D0012030BD94F8DD
:101060003E000128F9D184F83E202068C26842F091
:10107000020209E094F83F000128EED184F83F20F5
:101080002068C26842F00402C2600122206800F0B9
:1010900023FA1A492068884203D1426C42F4004284
:1010A00042642068884208D0B0F1804F05D01449CE
:1010B000884202D01349884204D1816801F00701B7
:1010C000062903D0016841F001010160284630BDC6
:1010D00094F840000128C0D184F840202068C268FC
:1010E00042F00802D0E784F841200C2901D0012504
:1010F000ECE72068C26842F01002C5E7002C01400E
:10110000000400400008004070B50D0004464FF098
:10111000000607D0042D0AD0082D0DD00C2D10D0BC
:1011200001263CE02068C16821F002010DE0206842
:10113000C16821F0040108E02068C16821F00801BD
:1011400003E02068C16821F01001C1600022294637
:10115000206800F0C1F9174B41F2111120688A1084
:10116000984209D1036A0B4206D1036A134203D1A4
:10117000436C23F4004343642068036A0B4206D1A6
:10118000016A114203D1016821F0010101600120CF
:101190003DB1042D08D0082D09D084F84100304617
:1011A00070BD84F83E00FAE784F83F00F7E784F862
:1011B0004000F4E7002C014070477047FEE7000054
:1011C00030B585B000241B48009401940294039428
:1011D000816941F020018161816901F02001049160
:1011E000816941F008018161816901F00801049180
:1011F000816941F00401816180690F4D00F00400B4
:10120000049000224FF400512846FFF745F90122CF
:1012100091032846FFF740F94FF4C04000900120A9
:10122000CDE901040320039069462846FFF744F8FE
:1012300005B030BD00100240000C014010B596B062
:1012400000240F9410941194129413941C2108A854
:101250001494FEF7B9FF20216846FEF7B5FF294830
:10126000274901604721C0E9011440F2E731C0E994
:10127000031444618461FFF773FC08B172B6FEE7A2
:101280004FF480500F900FA91E48FFF7B5FC08B12E
:1012900072B6FEE71B48FFF744FE08B172B6FEE7E0
:1012A000139413A917481494FFF726FC08B172B6DB
:1012B000FEE7602008904FF4FA70CDE909040B9422
:1012C0000C940D94002208A90E480E94FFF7C3FD5C
:1012D00008B172B6FEE700944FF40050CDE9044027
:1012E000029401940394694606480794FFF7DAFBD9
:1012F00008B172B6FEE70348FFF786FD16B010BDD1
:10130000002C014010000020FEE700002DE9F0470E
:10131000314C0D46DDF820A0217A1E461746814645
:101320000020002955D12560804660602B49E1608E
:101330004846616100F06AFB02D2E068206101E08A
:10134000C4F81090B819A84204D36808A061281AFC
:10135000E06101E0C4E90676384600F043FB05464B
:10136000D4E9031000F0D2FB0746294600F058FAF2
:101370002062304600F036FB0146384600F050FA55
:1013800060621748616900F04BFA00F00BFB0246FF
:101390001149401E48390B68D862C86050080A6875
:1013A00050630968C1F82480012020720D4C41036C
:1013B00052462046FFF770F800224FF48041204645
:1013C000FFF76AF8BDE8F047034800214838FFF707
:1013D00037BEBDE8F0870000580000200000C8427A
:1013E00000BADB49000C0140FEE770477047FFF789
:1013F0005FB830B58FB028216846FEF7E5FE1421AE
:101400000AA8FEF7E1FE01210804CDE9001000243E
:10141000029402250491CDE907504FF4E0100990A1
:101420006846FFF799F908B172B6FEE70F20CDE9DB
:101430000A054FF48060CDE90C4002210AA80E9401
:10144000FFF7CEF8002801D072B6FEE70FB030BD2E
:10145000704700000148FFF73EBC0000100000206C
:10146000F0B50268194B1A4C1A4D4FF0804798425C
:1014700005D0B84203D0A04201D0A84203D122F047
:1014800070064A683243984205D0B84203D0A04261
:1014900001D0A84203D122F44074CA6822434C69A7
:1014A00022F08002224302608A68C2620A68826275
:1014B000984201D109690163012141610169C907AC
:1014C00003D0016921F001010161F0BD002C014050
:1014D000000400400008004010B501F01F03012186
:1014E000046A99408C430462016A9A401143016284
:1014F00010BD10B5846842EA032224F47F440A43F5
:101500002243826010BD826822F070020A4342F0DA
:10151000070181607047000030B5036A026A22F05B
:10152000010202624268846924F073050C682C434E
:1015300023F002058B682B430A4DA8420BD123F000
:101540000805CB6822F440722B434D6923F0040355
:1015500015438A692A434260846149684163036292
:1015600030BD0000002C014030B5026A036A23F050
:1015700010030362436884690D6824F4E64444EA76
:1015800005248D6822F0200242EA05120B4DA84284
:101590000ED1CD6822F0800242EA05124D6923F493
:1015A000406343EA85038D6922F0400243EA8503E4
:1015B0004360846149688163026230BD002C014050
:1015C00030B5036A026A22F4807202624268C4691A
:1015D00023F4007324F073050C682C438D6843EAF0
:1015E00005230C4DA8420ED1CD6823F4006343EAD5
:1015F00005234D6922F4405242EA05128D6923F415
:10160000806342EA05124260C4614968C1630362B3
:1016100030BD0000002C014030B5046A026A22F49B
:10162000805202624268C3690D6823F4E64343EACC
:1016300005238D6824F4005444EA0534064DA8427D
:1016400004D14D6922F4804242EA85124260C361AE
:1016500049680164046230BD002C014010B5036A82
:10166000046A24F001040462846924F0F00444EA6A
:10167000021423F00A020A438461026210BD10B50D
:10168000036A046A24F010040462846923F0A0034E
:1016900024F4704444EA023243EA01118261016297
:1016A00010BDFEE70907090E002804DB00F1E02069
:1016B00080F80014704700F00F0000F1E02080F87F
:1016C000141D704708B5FEF7FBFEFFF792FEFFF70B
:1016D00077FDFFF7B3FD184840F2CF710268D16281
:1016E000C16000684FF47A714163134C4FF05009A8
:1016F0000126DFF848B0002748344FF4487AC8463E
:101700004D1043464A46514658460096FFF7FEFDA7
:10171000207A0028FCD12846FEF7BCFD43464A4605
:10172000514607480097FFF7F1FD207A0028FCD1C9
:101730002846FEF7AFFDE4E71000002000803B459F
:101740000080BB4590EA010F48BF81F0004100F1E5
:10175000E481421A3CBF801A89184FEAD0524FF0F8
:101760007F4C1CEA410FA2EBD15318BF9CEA026FD9
:1017700000F03B804FF0004C4CEA00204CEA012185
:1017800021FA03FC10EB0C0C1ED202F1FF325FEACF
:101790001C2040EBC25038BF70471CF07F0F4FEA4F
:1017A000400C18BFBCF17F4F38BF7047C3F1200316
:1017B000994008BF20F00100BCF17F4F38BF70474F
:1017C000A0F1C04000F09CB94FEA3C00000A40EB99
:1017D000C25028BF1CF0FF0F4FEA400CE6D018BFE4
:1017E000BCF17F4F38BF7047EAE79CEA026F05D033
:1017F00010EA5C0F08BF00F00040704710B500F021
:1018000039F900BF64FBBE3E401058BFC0F14040F4
:10181000491058BFC1F140418142EFF30080704749
:101820004FF47F0C1CEAD0121EBF1CEAD11392EABF
:101830000C0F93EA0C0F00F0858090EA010F48BF6F
:1018400042F4807240F4000C41F400002CF07F411F
:1018500020F07F4000B58142A2EB03020FF2081C8A
:10186000ACEB504EC0F100009EF800E04FEA4E0E87
:1018700000FB0EFC38BF49004FEA2C1C02F5FA02AF
:101880000CFB0EF34FEACE1E4FEA112C4FEAC1219A
:101890000EEB635E42EB22420EFB0CFC4FEA1C5344
:1018A00000FB03114FEA112C4FEA01310EFB0CFC37
:1018B0004FEADC4C00FB0C11C14228BF09184CEB6D
:1018C00003335DF804EB10EB410143EBC250B2F57A
:1018D0007C0F38BF704729D512F0F00F1CBF00F104
:1018E000C04000F000407047008182838485868775
:1018F00088898B8C8D8E8F919293959697999A9CCF
:101900009D9FA0A2A3A5A7A8AAACAEB0B2B3B5B73D
:10191000B9BCBEC0C2C5C7C9CCCED1D4D7D9DCDF13
:10192000E2E6E9ECF0F3F7FAFE0000004FEA400CC3
:101930000CF1807CBCF17E4F28BF7047B0F1C040F5
:1019400000F0DEB890EA010F0CEAD11348BF42F470
:101950008072624538BF634507D213F47F0F16D0FB
:1019600080EA010000F00040704710B500F082F8F6
:10197000097EFC3E00F005B880EA010000F000405E
:10198000704780EA010000F0004000F0B9B812F49E
:101990007F0F04BF0248704780EA010000F0B0B832
:1019A0000000C07FC10DD1F19E0206DB4FEA00238B
:1019B00043F0004323FA02F07047004207D54FEA94
:1019C0004001B1F1FE4F02D24FF00000704710B558
:1019D00000F050F849922480002070476FEA200000
:1019E00070470000B0FA80F310FA03F2C3F19D03D0
:1019F0000AD0D90501EB1220530638BF704700F119
:101A0000010008BF20F001007047000050EA010CFF
:101A100000F113801CF5000F58BFBCF5000F01D476
:101A20008842704707D710F5000F58BF11F5000F17
:101A300015D488427047894270471CF5000F04D5C1
:101A4000BCF5000FF7D5814270474FF0807C1CEB4E
:101A5000400F38BF1CEB410F01D28142704710B5D7
:101A600000F008F8922449004FF000504FF08051E8
:101A7000FFF7CABE0EF1020E2EF0030E5EF8044B05
:101A8000244204D44FEA4102B2F17F4F11D84FEA09
:101A90004003B3F17F4F0CD80ED14FEAD07CB2F1A6
:101AA0007F4F0CEB4C0C0CF1020C08BF4CEBD17CC3
:101AB00004E04FF0080C01E04FEAD17C0CEB4C0342
:101AC00024FA03F404F00704B4F1040C06D20EEB7C
:101AD000840CBDE810404CF0010C6047DFE80CF0CE
:101AE000070802024FF00040A0F5800010BD084634
:101AF000420018BFD2F1807288BF00F0004010BDD4
:101B0000FF2141EAD050C0057047000090EA010F64
:101B100048BF81F000413FF51CAE421A04D882F064
:101B20000042A0EB020011444FEAD0524FF07F4C2C
:101B30001CEA410FA2EBD15318BF9CEA026F4AD0B6
:101B40004FF0004C4CEA00204CEA012121FA03FC42
:101B5000B0EB0C0C0FD412F0FE0F36D05FEA4C0045
:101B60001DD5001240EBC25038BF70471CF03F0F2C
:101B700018BF70470BE0A2F101025FEA1C2040EBA6
:101B8000C25038BF70471CF07F0F18BF7047C3F1B9
:101B90002003994014BF401E20F0010070478008C8
:101BA0004FEA122308BF7047B0FA80FCA2EB0C0288
:101BB000CCF1280C60FA0CF093EA122F04BF00EB72
:101BC000C25070474FEAC3707047130A5FEADC10D7
:101BD00008BF7047F6E79CEA026F04D010EA5C0F7A
:101BE00008BF0020704710B5FFF744FF40DFF63E06
:101BF00081F000407047010202030405060708094E
:101C00000A0B0C0D0E0F1010000000000000000069
:101C10000102030406070809381C00080000002020
:101C20001000000028010008481C000810000020D7
:101C3000D006000044010008010000001000000070
:081C40000000000000127A0010
:04000005080000ED02
:00000001FF
