:020000040800F2
:1000000000070020A90100086B2300081D2200083A
:10001000692300088F130008072B00080000000068
:100020000000000000000000000000004926000859
:10003000911300080000000047260008552800081A
:10004000C3010008C3010008C3010008C301000880
:10005000C3010008C3010008C3010008C301000870
:10006000C3010008C3010008C3010008C301000860
:10007000C3010008C3010008C3010008C301000850
:10008000C3010008C3010008C3010008C301000840
:10009000C3010008C3010008C3010008C301000830
:1000A000C3010008C3010008C3010008B928000803
:1000B000C3010008C3010008C3010008C301000810
:1000C000C3010008C3010008C3010008C301000800
:1000D000C3010008C3010008C3010008C3010008F0
:1000E000C3010008C3010008C301000800F002F8C2
:1000F00000F04AF80AA090E8000C82448344AAF178
:100100000107DA4501D100F03FF8AFF2090EBAE875
:100110000F0013F0010F18BFFB1A43F0010318473B
:10012000D8370000F8370000103A24BF78C878C1EB
:10013000FAD8520724BF30C830C144BF04680C60ED
:10014000704700000023002400250026103A28BF35
:1001500078C1FBD8520728BF30C148BF0B60704739
:10016000662903F07480642900F0588000207047ED
:100170001FB500F0CFFB04000020002102F0C6FDF7
:10018000E0601FBD10B510BD00F0C4FC1146FFF7C4
:10019000EFFF02F0E5FC00F0E2FC03B4FFF7F2FF32
:1001A00003BC00F025FD00000948804709480047CE
:1001B000FEE7FEE7FEE7FEE7FEE7FEE7FEE7FEE717
:1001C000FEE7FEE704480549054A064B7047000074
:1001D000B7280008ED0000080001002000070020FB
:1001E00000030020000300200FB41CB50C0007AA78
:1001F000009001D02044401E074B7B44694601908B
:10020000069800F066FB002C03D06946002000F041
:1002100073FB1CBC5DF814FB050700002DE9F041E1
:100220000646002410687529314616A510D0AFF394
:100230000080002802DA404213A507E031688A07EF
:1002400001D512A502E0490704D511A5012401E05A
:10025000AFF3008000210A2206F1240709E0B0FB79
:10026000F2FCB0FBF2F302FB1C003030785418466D
:10027000491C0028F3D123462A463046BDE8F04108
:1002800000F0B9B8000000002D0000002B000000B5
:10029000200000002DE9F0474FF0000A894604468F
:1002A000C0F820A02046E1688847002876D025289D
:1002B00006D0D4E901219047206A401C2062F1E772
:1002C000E168204600258847C4F81CA006460027A0
:1002D000C4F818A02A2E09D0304602F039FC38B3F1
:1002E00004EB8708303EC8F8186019E059F8041B81
:1002F000204604EB87029161E1688847012F06469A
:1003000018D1E069002820DA25F020051DE0D8F892
:10031000180000EB800006EB40003038C8F81800E9
:100320002046E1688847064602F012FC0028EED11C
:10033000012F0AD02E2E08D12046E16888477F1C65
:100340000646022F45F02005C4DBA069002803DA29
:10035000404245F00105A061E80701D025F01005F5
:10036000B6B1A6F14100192802D8203645F400653F
:100370004A463146204625604D46FFF7F1FE58B10A
:10038000012806D0ED1D25F0070000F1080989E7D6
:1003900004E005F1040985E730468AE7206ABDE8F4
:1003A000F0874FF0000200B5134694469646203978
:1003B00022BFA0E80C50A0E80C50B1F12001BFF41E
:1003C000F7AF090728BFA0E80C5048BF0CC05DF884
:1003D00004EB890028BF40F8042B08BF704748BFD2
:1003E00020F8022B11F0804F18BF00F8012B704746
:1003F0007047704770472DE9F0470D469946924681
:10040000044600F124080168880604D5E06921F05B
:100410001001216000E00120A84201DD471B00E03F
:100420000027A1697A1902EB0900081AA061207857
:10043000C00602D42046AFF30080002608E0D4E9CD
:1004400001211AF806009047206A401C761C2062A1
:100450004E45F4DB2078C0060AD52046AFF3008075
:1004600006E0D4E9012130209047206A401C206238
:10047000381EA7F10107F4DC07E0D4E9012118F8E0
:1004800005009047206A401C2062281EA5F1010546
:10049000F3DC2046AFF300802078000602D502206E
:1004A000BDE8F0870120FBE770472DE9FF4F0C46C0
:1004B0001E464FF0FF378BB0D2E90001DDF86080B7
:1004C0000A908A46C1F30A5505B93D4600210846FF
:1004D0004FF00000BAF1000F00F4400005DA00EB25
:1004E00080004FF4400101EA50004FEA9059B9F101
:1004F000010F00DDB9460A9850EA4A000ED044F6D2
:100500001050A5F2FF3545432F14B8F1000F1ED04F
:100510007542291E1EDDC9F100021CE0B8F1010F71
:100520004FF0000001D0302103E0F24305E02154F8
:10053000401CB042FBDB30460022002121540B99C5
:10054000C1F80880C1E900200FB0BDE8F08FBD1BE5
:100550006D1CDEE74A4600DA694206A800F064FA3C
:1005600006AB93E8070003AB83E8070050460A99FF
:1005700000F045FB8DE80700A0F500501F38009003
:100580000398002D0ADD42F21F014A460844002369
:1005900003A90390684600F0AEFD09E0A0F5005005
:1005A0004A461F38002303A90390684600F0B8FDAF
:1005B0008DE807000004000C03D04FF0FF30410825
:1005C00000E01046B8F1000F03D00022009215465B
:1005D0001EE0751E05D400F0A1F9303262556D1E83
:1005E000F9D5B3460122084302D000227F1C04E063
:1005F0002078302801D100227F1E002A099784D05C
:100600001DE0112D07DA00F089F9303262556D1CBA
:1006100050EA0102F5D1084302D00098C8B10EE0BB
:100620000021681E05E0235C625C63542254401E76
:10063000491C8142F7DBAB46A81B401E09900020F5
:1006400004F80B000B98099AC0F80880C0E9002B49
:100650007AE711264FF0000857E72DE9F04F88465A
:100660000446D21D22F0070191B0D1E90001CDE985
:100670000A0102F049FA02460B98C00F01D02D2062
:1006800007E02068810701D52B2002E0202101EA44
:10069000C000032A099001D0072A05DB0346414622
:1006A000204600F081F90BE12078800601D5E06951
:1006B00000E00620B8F1650F814606D0B8F1660F5C
:1006C00018D0B8F1670F70D131E00020B9F1110FE7
:1006D000009001DB112301E009F101030AAA01A93D
:1006E0000CA8FFF7E2FEDDE90C70002609F1010518
:1006F000834647E001204B4600904FF000470AAA8E
:1007000001A90CA8FFF7D1FEDDE90DB00C995D46FB
:10071000002610B909F101000D18B9EB050003D44A
:10072000C0F1FF3609F10105A5EB09002BE0B9F195
:10073000010F01DA4FF001090020B9F1110F00900B
:10074000484601DD112300E003460AAA01A90CA8CE
:10075000FFF7ABFEDDE90C704D460026834620789E
:1007600000070AD4AB4500DA5D4601A8012D04DD7F
:10077000411911F8011C302907D04F4502DA17F151
:10078000040F04DA012082460FE06D1EEEE7002F11
:1007900002DCED1B3E4403E0781CA84200DD7D1C1A
:1007A000B81B00F1010A4FF000472078000703D47E
:1007B000AA4501DB4FF0FF3A0021B7F1004F0DF1E0
:1007C00043088DF8431024D002202B23002F01DA98
:1007D0007F422D230A21021EA0F1010000DC5FB13F
:1007E00097FBF1FC97FBF1F201FB1C7C17460CF127
:1007F000300C08F801CDEEE7A8F101000370218864
:10080000090501D5452100E06521A0F1010800F8A6
:10081000011C09980FA9A1EB0807FF1D00B10120D9
:10082000411901EBEA70A1693844081A401EA06121
:100830002078C00602D42046AFF30080099828B182
:10084000D4E901219047206A401C20622078C0062C
:1008500022D52046AFF300801EE0002E04DBB34516
:1008600002DD01A8805D00E03020D4E9012190473D
:10087000206A401C2062761CAAF101005FEA000A8F
:100880000AD100F047F8C0680168405CD4E9012152
:100890009047206A401C2062281EA5F10105DCDC7F
:1008A00007E0D4E9012118F8010B9047206A401CA9
:1008B0002062381EA7F10107F3DC2046AFF3008069
:1008C000032011B041E6000001694A1C026108786A
:1008D000704700B58FB0CDE9013100210591054980
:1008E0007944CDE9031011466846FFF7D3FC0FB0F9
:1008F00000BD0000E5FFFFFF0A6802F8010B0A6077
:100900007047D1E900239A4202D2531C0B60107049
:100910007047000000487047BC00002030B5B0F1BF
:100920000A024FEA900E71F100034EEA817EB0EBAD
:100930000E0061EB91014FEA101E4EEA017E10EBB2
:100940000E0041EB11114FEA102E4EEA016E10EB32
:100950000E0041EB11214FEA104E4EEA014E10EB12
:100960000E0041EB1141401841F100014FEAD00067
:1009700040EA41704FEAD10110EB80054FEA810453
:1009800044EA907444EB01046D1944EB0404521BD7
:10099000A3414FF0000348BF0A3200D530BD401CD0
:1009A00041F1000130BD00002DE9F0411F46044631
:1009B00003260168072A01F4006004DB08B116A5CC
:1009C00005E016A503E008B115A500E015A521F086
:1009D00010002060A069C01EA0610FB1401EA06180
:1009E0002046AFF300804FB1D4E90121384690474B
:1009F000206A401C2062C01C206206E0206AFAE7E0
:100A0000D4E9012115F8010B9047761EF8D2204653
:100A1000AFF30080BDE8F0814E414E006E616E0084
:100A2000494E4600696E66002DE9F047814616463C
:100A30008AB0354878440DC88DE80D0032487844B6
:100A4000801C03AC0DC884E80D0041F69B300844BF
:100A5000372190FBF1F290FBF1F5A5F1800501FB48
:100A600012041B3C02D56442012000E00020DFF8A4
:100A700098A080460027FA44AAF1BE0A0EE0E007DB
:100A80000AD03246684607EB470101230AEB810191
:100A900000F046FB8DE8070064107F1C002CEED1AF
:100AA000194F7F44AE3F19E0E80715D007EB04105B
:100AB0000DF1180A90E80E008AE80E00C068F042B6
:100AC00001D1981908903246012306A903A800F025
:100AD00027FB03AB83E807006D10641C002DE3D1F6
:100AE0004FF0010332466946B8F1000F03A802D067
:100AF00000F001FB01E000F013FBC9E90001C9F8B7
:100B000008200AB0BDE8F087A82E00000048704712
:100B10009C0000207546FFF7F9FFAE4605006946C8
:100B2000534620F00700854618B020B5FFF74AFB72
:100B3000BDE820404FF000064FF000074FF00008DE
:100B40004FF0000B21F00701AC46ACE8C009ACE85F
:100B5000C009ACE8C009ACE8C0098D46704710B5C3
:100B60000446AFF300802046BDE81040FFF715BBF8
:100B70004FF0013C50F8042B51F8043B9A4221D12C
:100B8000A2EB0C03934313EACC1317D150F8042BB8
:100B900051F8043B9A4215D1A2EB0C03934313EA9C
:100BA000CC130BD150F8042B51F8043B9A4209D1D5
:100BB000A2EB0C03934313EACC13DBD04FF00000FD
:100BC000704700BFD01A01BAB1FA81F101F01801E3
:100BD00022FA01F0CB40C1F12001DBB2C0B2C01A51
:100BE0002CFA01F3D11A914311EAC311E6D17047EF
:100BF00001491820ABBEFEE72600020070475FEAFD
:100C0000400C08BF91F0000F4FEA8C234FEAC1223D
:100C100043EA51514FEA1C5018BF00F5F0404FEA2B
:100C2000300018BF41F000415FEA6C5C00F02980A1
:100C3000BCF1FF3F08BF40F080407047130C06BF77
:100C400012044FF0100C4FF0000C130E04BF1202F0
:100C50000CF1080C130F04BF12010CF1040C930FDC
:100C600004BF92000CF1020CD30F04BF52000CF130
:100C7000010C11464FF00002A0F11F00A0EB0C0088
:100C8000704711F0004F08BF704731F000413FF44A
:100C9000D5AF0B0C06BF09044FF0100C4FF0000C41
:100CA0000B0E04BF09020CF1080C0B0F04BF090165
:100CB0000CF1040C8B0F04BF89000CF1020CCB0F5C
:100CC00004BF49000CF1010CCCF12003A0EB0C0097
:100CD00022FA03F302FA0CF241EA030100F10100E7
:100CE000704720F07F4C80EA030023F07F47ACEB95
:100CF000070303F57C5300F0004003F1FF032DE9E7
:100D000080494FEA154B09B44FEA144325EA0B4ECC
:100D100024EA03480FF2042606EB132749083E781D
:100D20005FEA320203FB0667C7F5000707FB06F61A
:100D30004FEA54374FEAD64606F1020607FB066C27
:100D4000CCF1005C4FEA1C472CEA074C07FB06F489
:100D50000CFB06F504EB15464FEA961634BF00204F
:100D60004FF000404FEAD13706FB07FC4FEA1C4C1E
:100D70000CFB0BF7D21B03FB0CF761EB07010CFB21
:100D80000EF7B0EB074072EB17420CFB08F734BFCD
:100D9000A2EB0742B2EB074261EB17414FEA0C446A
:100DA0004FEA910706FB07FC4FEA1C4C0CFB0BF7C4
:100DB000B0EBC74072EB573203FB0CF734BFA2EB2A
:100DC000C742B2EBC74261EB57310CFB0EF7B0EBF9
:100DD000C70072EB57720CFB08F734BFA2EBC702D7
:100DE000B2EBC70261EB5771039F4FEA816141EAA1
:100DF000921104EBCC044FEAD1374FEA826206FB32
:100E000007FC42EA90124FEA80604FEA1C4C0CFB50
:100E10000BF7D21B03FB0CF761EB07010CFB0EF782
:100E2000B0EB074072EB17420CFB08F734BFA2EBA4
:100E30000742B2EB074261EB17414FEA8C554FEA8C
:100E4000910704EB9C2406FB07FC4FEA1C4C0CFBAF
:100E50000BF7B0EBC74072EB573203FB0CF734BF14
:100E6000A2EBC742B2EBC74261EB57310CFB0EF766
:100E7000B0EBC70072EB57720CFB08F734BFA2EB64
:100E8000C702B2EBC70261EB577115EB4C254FEA75
:100E9000816141EA92114FEA82624FEAD13742EA18
:100EA000901206FB07FC44F100044FEA80604FEA11
:100EB0001C4C0CFB0BF7D21B03FB0CF761EB07017F
:100EC0000CFB0EF7B0EB074072EB17420CFB08F778
:100ED00034BFA2EB0742B2EB074261EB174115EBBF
:100EE0001C154FEA813141EA92414FEA823242EACF
:100EF00090424FEA80304FEA0C7644F1000448EA11
:100F000003434EEA0B484FF0000EB2EB080C71EBB6
:100F1000030724BF624639464EEB0E0E4FF0000B1E
:100F20000018524149414BEB0B0BB2EB080C71EB33
:100F300003077BF1000B24BF624639464EEB0E0ED1
:100F40004FF0000B0018524149414BEB0B0BB2EB39
:100F5000080C71EB03077BF1000B24BF6246394696
:100F60004EEB0E0E51EA020718BF46F0010616EBD3
:100F70000E7655F1000254F1000103D5BDE8890158
:100F8000BDE80088BDE88901BDE80048B6195241B6
:100F900041EB0101A3F10103704780807F7E7D7CDE
:100FA0007B7A7978777676757473727171706F6EFB
:100FB0006E6D6C6C6B6A6A696868676666656464A6
:100FC000636362616160605F5F5E5E5D5D5C5C5B30
:100FD0005B5A5A595958585757565655555554549F
:100FE000535352525251515050504F4F4F4E4E4DFD
:100FF0004D4D4C4C4C4B4B4B4A4A4A494949484849
:101000004847474747464646454545444444444388
:1010100043434342424242414141002B9C4630D42B
:1010200077002BD01CB54FEA370703B44FF0100000
:101030004FF01001BAF1000F06D0BCF1000FDCBF79
:1010400040F0080040F008014FF000000FBCBDE880
:1010500010400BF1010BBBF1010F08BF5FEA17074E
:1010600022BF12F1010211F101014FF0004143F1E1
:10107000000300F0004043EA00007047F9D357082E
:10108000D0E746EA064613F1400F4FEA16461FDD49
:1010900013F1200FDFBF16430A46002120335B42C5
:1010A000BED0C3F1200746EA064602FA07F74FEA28
:1010B000164646EA0706C3F1200722FA03F201FAB0
:1010C00007F721FA03F14FF0000342EA0702A7E70E
:1010D00046EA020646EA06464FEA164646EA010690
:1010E000BCBF46EA0646360C4FF000034FF0000244
:1010F0004FF0000194E72DE9804C9A46934670B476
:1011000091E8380007C831EA400C48BF34EA430C84
:1011100003D5FFF7E6FDFFF780FFF0BCBDE8008CCC
:101120002DE9804C9A46934670B491E8380007C880
:1011300010F0804F08BF13F0804F03D100F005F886
:10114000FFF76BFFF0BCBDE8008C20F07F4780EA22
:10115000030023F07F4C07EB0C03A3F57C5300F056
:101160000040A3F1FE0392F0000F00F0B38095F071
:10117000000F00F077802DE901494FEA11404FEA56
:10118000144621EA004800FB06FC24EA064708FB57
:1011900006F607FB08F800FB07F718EB06484CEBD0
:1011A000164C4FEA124B18EB07484FEA15464CEB2A
:1011B000174022EA0B4E0BFB06FC25EA06470EFB06
:1011C00006F607FB0EFE0BFB07F71EEB064E4CEB7D
:1011D000164C4FF000061EEB074E4CEB174B18EB6E
:1011E0000B0840F1000018EB0E0B58EB000840F123
:1011F00000008F1A4FF000013CBFC943661B14BFAB
:10120000B5EB040C00213CBFC943F61B4FEA174461
:101210004EEA8E0E27EA04454FEA1C4704FB07629C
:101220002CEA074C05FB07F70CFB05F604FB0CFC4E
:1012300016EB074642EB174216EB0C4642EB1C42FC
:101240001BEB060658EB0202414146EA9E0601D519
:10125000BDE80189B619524141EB0101A3F1010337
:10126000BDE801894FEA14454FEA114724EA0546D3
:1012700021EA074C05FB07F406FB07F70CFB06F118
:1012800005FB0CFC11EB074144EB17444FEA1247F6
:1012900011EB0C4144EB1C4422EA074C05FB07F21E
:1012A00006FB07F70CFB06F605FB0CFC16EB0746E6
:1012B00042EB174216EB0C4642EB1C456A1854F100
:1012C000000148BF7047B619524141EB0101A3F13B
:1012D0000103704795F0000F37D04FEA11424FEAF3
:1012E000144721EA024624EA074C02FB07F106FBF9
:1012F00007F70CFB06F402FB0CFC14EB074441EB74
:1013000017414FEA154714EB0C4441EB1C4125EA09
:10131000074C02FB07F506FB07F70CFB06F602FB82
:101320000CFC16EB074645EB174516EB0C4645EB58
:101330001C42121951F1000148BF7047B6195241C1
:1013400041EB0101A3F1010370474FEA14454FEA55
:10135000114724EA054621EA074C05FB07F106FB85
:1013600007F70CFB06F24FF0000605FB0CFC12EB36
:10137000074241EB174112EB0C4251EB1C4148BFB5
:101380007047921841EB0101A3F101037047FEE79A
:101390007047000070B5044600F004F90546601C73
:1013A00002D004480078044400F0FCF8401BA0423E
:1013B000FAD370BD000000202DE9F84FDFF8B89196
:1013C0000024A9F1040B23460F2709F1040AABF10D
:1013D000040EC9E00125A5402A40AA427DD1674EEE
:1013E000D1F804C0ACEB0608B44532D014DCBCF133
:1013F000030F3AD009DCBCF1000F2AD0BCF1010F79
:101400001CD0BCF1020F31D11DE0BCF1110F17D07F
:10141000BCF1120F2AD119E0B8F5881F19D006DCEB
:10142000B8F5803F15D0B8F5801F1FD111E0B8F591
:10143000001F0ED0B8F5041F18D10AE0CB6815E0E4
:10144000CB681B1D12E0CB6808330FE0CB680C3370
:101450000CE08B682BB1012B4FF0080303D04561E2
:1014600004E0042302E0056100E00023FF2A01D824
:10147000064601E000F104064FEA840501D9A5F112
:101480002005D6F8008007FA05FC28EA0C0803FAC4
:1014900005F548EA0508C6F800804D68ED0062D5FC
:1014A000374DAE6946F00106AE61AD6924F0030622
:1014B00005F001050095334D06EB050CDCF80850EE
:1014C000A607360F07FA06F825EA0805DFF8B88000
:1014D000404503D14FF0000817E044E0DFF8AC804E
:1014E000404502D14FF001080FE0DFF8A4804045ED
:1014F00002D14FF0020808E0DFF89880404502D1A1
:101500004FF0030801E04FF0040808FA06F848EA33
:101510000508CCF808804D68D9F80060ED024D460A
:1015200001D5164300E096432E604D68DAF800605E
:10153000AD02554601D5164300E096432E604D6836
:10154000DBF80060AD035D4601D5164300E096432D
:101550002E604D68DEF80060ED03754601D5164338
:1015600000E096432E60641C0D682A46E5407FF437
:1015700031AFBDE8F88F00000804014000001110F1
:10158000001002400000014000080140000C014032
:1015900000100140001401400AB1016170470904C4
:1015A000FBE7000001488068704700000000002051
:1015B0000248816802781144816070470000002071
:1015C000074810B5016841F010010160032000F0E8
:1015D00075F80F2000F006F800F024F8002010BD88
:1015E0000020024070B50D4D04464FF47A71287802
:1015F000B1FBF0F00A490968B1FBF0F000F0BCFA69
:1016000048B9102C07D200222146501E00F036F8AF
:1016100000206C6070BD012070BD00000000002043
:101620000C0000200C4808B5816941F0010181617E
:10163000816901F001010091C16941F08051C161EE
:10164000C06900F0805000900448416821F0E061DA
:1016500041F00071416008BD0010024000000140EF
:10166000002809DB00F01F020121914040098000A1
:1016700000F1E020C0F8001170470000F0B40E4BFC
:101680001B680C46C3F30223C3F10705042D00D9E0
:101690000425191D072901D2002300E0DB1E0126C5
:1016A00006FA05F1491E214099409E40761E1640DB
:1016B0003143F0BC01F03CBA0CED00E0064900F00B
:1016C000070208684FF6FF03184040EA0220034A69
:1016D00010430860704700000CED00E00000FA05C0
:1016E0002DE9F0470F46050061D0434E306800F009
:1016F0000700B84209D2306820F007003843306054
:10170000306800F00700B84251D128683B4C81078F
:1017100012D5400703D5606840F4E0606060287827
:10172000000703D5606840F4605060606068A96895
:1017300020F0F000084360602878C00728D068686F
:10174000012810D02168022810D0890700292EDA3C
:10175000616821F0030101436160FFF723FF8046C8
:1017600041F288390DE021688903EFE78901EDE74F
:10177000FFF718FFA0EB0801494502D90320BDE897
:10178000F0876068696800F00C00B0EB810FEFD162
:10179000306800F00700B8420BD9306820F007002D
:1017A00038433060306800F00700B84201D00120B3
:1017B000E5E72878400705D56068E96820F4E0602F
:1017C000084360602878000706D56068296920F41E
:1017D000605040EAC100606000F018F86168084A93
:1017E000C1F30311515CC84006490860064800680F
:1017F000FFF7F8FE0020C2E7002002400010024080
:10180000643200080C000020040000200E4A5168D9
:101810000E4801F00C03042B11D0082B0FD10C48FB
:10182000C1F38343C903C05C0AD55168084AC1F3B8
:101830004041921E515C054A5043B0FBF1F07047A5
:1018400004494843704700000010024000127A002B
:101850005432000800093D002DE9F84F040070D013
:101860002078C04DC00749D06868C0F381000128C6
:1018700007D06868C0F38100022809D16868C003F6
:1018800006D52868800339D560680028E7D035E0A0
:101890006068B0F5803F0BD010B1B0F5A02F11D02B
:1018A000286820F480302860286820F4802002E036
:1018B000286840F480302860606890B1FFF772FEBD
:1018C00006460AE0286840F480202860F0E700BF60
:1018D000FFF768FE801B642873D828688003F7D55B
:1018E0000CE0FFF75FFE064605E000BFFFF75AFE7B
:1018F000801B6428F0D828688003F7D420789A4E9B
:1019000080074FF001094FF0000839D5686810F0E2
:101910000C0F07D06868C0F38100022809D16868FD
:10192000C00306D42868800714D52069012808D18F
:1019300010E02069B0B1C6F80090FFF733FE07460B
:1019400005E00AE1FFF72EFEC01B0228C4D8286874
:101950008007F7D52868616920F0F80040EAC100E7
:1019600028600DE0C6F80080FFF71CFE074604E083
:10197000FFF718FEC01B022823D828688007F7D479
:10198000207800072CD57948A169D9B1C0F800901A
:10199000FFF708FE074604E0FFF704FEC01B02281D
:1019A0000FD8686A8007F7D571484FF4FA5100687C
:1019B000B0FBF1F0009000BF0098411E0091FAD2F8
:1019C0000EE080E0C0F80080FFF7ECFD074604E081
:1019D000FFF7E8FDC01B022875D8686A8007F7D4B6
:1019E0002078400760D5E8690027C00008D4E8697E
:1019F00040F08050E861E869012700F080500090D5
:101A00005C480168C90513D40168834641F48071BC
:101A10000160FFF7C7FD824606E000BFFFF7C2FD89
:101A2000A0EB0A0064284ED8DBF80000C005F5D50D
:101A3000E06801280AD008B1052813D0286A20F0F0
:101A400001002862286A20F0040002E0286A40F0C1
:101A500001002862E06841F2883B98B1FFF7A2FDDF
:101A600082460BE0286A40F004002862EEE700BFDF
:101A7000FFF798FDA0EB0A0159455AD8286A80075C
:101A8000F6D50CE0FFF78EFD824605E0FFF78AFDF4
:101A9000A0EB0A0159454CD8286A8007F6D41FB13B
:101AA000E86920F08050E861E06988B36968C1F3B3
:101AB0008101022944D00228C6F8608004D0FFF7D3
:101AC00071FD044638E034E0FFF76CFD074604E0A2
:101AD000FFF768FDC01B02282BD828688001F7D4C7
:101AE000206AB0F5803F05D16868A16820F4003015
:101AF00008436860D4E908010843696821F4741157
:101B000008436860C6F86090FFF74CFD044606E0A5
:101B100025E000BFFFF746FD001B022809D8286812
:101B20008001F7D51BE000BFFFF73CFD001B02283A
:101B300002D90320BDE8F88F28688001F4D40EE0B4
:101B40000128F7D06868226A00F48031914204D1FC
:101B5000616A00F47010884201D00120EAE7002099
:101B6000E8E70000001002400000424280044242C8
:101B70000C0000200070004010B5401EB0F1807FC6
:101B800001D3012010BD4FF0E02460610F216017E8
:101B900000F0CEFF0020A06107202061002010BDD2
:101BA0007047704710B590F83C20012A22D00122DE
:101BB00080F83C20CA688C6822F4407222434C684A
:101BC00022F4806222430C6822F4006222430C69F2
:101BD00022F4805222434C6922F400522243C96904
:101BE000002322F480420A4301684A6480F83C30B2
:101BF000002010BD022010BD70B590F83C20012AD5
:101C000026D0012480F83C40022280F83D20036861
:101C10005A689D6822F070060A6832435A600D4B7C
:101C200002689A4208D0B2F1804F05D00A4B9A421E
:101C300002D00A4B9A4204D1496825F08003194327
:101C4000916080F83D40002180F83C10084670BD4E
:101C5000022070BD002C014000040040000800403C
:101C600010B5040003D094F83D0010B107E0012046
:101C700010BD002084F83C00204600F01FF8022030
:101C800084F83D00211D206800F01CFE012084F82E
:101C9000460084F83E0084F83F0084F8400084F851
:101CA000410084F8420084F8430084F8440084F83A
:101CB000450084F83D00002010BD000008B5006814
:101CC0000B49884212D10B48816941F4006181615E
:101CD0008069002200F40060009011461B20FFF78D
:101CE000CDFCBDE808401B20FFF7BABC08BD0000D2
:101CF000002C01400010024070B5044690F83C00F2
:101D00000025012817D0012684F83C60022084F8C1
:101D10003D002068826822F0770222F47F428260D0
:101D20000868502838D00DDC20284FD005DC90B34F
:101D3000102811D14AE0022070BD302846D040283A
:101D40000AD13BE060282FD070280DD0B0F5805F1D
:101D500003D0B0F5005F12D0012584F83D6000206B
:101D600084F83C00284670BDCB68D1E90121206889
:101D700000F0F1FD2068816841F0770109E0CB684F
:101D8000D1E90121206800F0E6FD2068816841F476
:101D900080418160E1E719E0CA684968206800F085
:101DA0008FFE5021206806E0CA684968206800F06C
:101DB00098FE6021206800F0D8FDCEE7CA68496827
:101DC000206800F07DFE40212068F4E7226801468B
:101DD0001046F0E770472DE9F04104460068C668F8
:101DE00005694FF00007A90713D5B10711D5F91EF2
:101DF000016101202077206880698007204602D099
:101E0000FFF7E8FF04E000F0A5F8204600F038F9FD
:101E10002777680716D5700714D521686FF004007E
:101E20000861022020772068806910F4407F2046F6
:101E300002D0FFF7CFFF04E000F08CF8204600F05E
:101E40001FF92777280715D5300713D521686FF0BC
:101E500008000861042020772068C06980072046B8
:101E600002D0FFF7B7FF04E000F074F8204600F05E
:101E700007F92777E80616D5F00614D521686FF024
:101E800010000861082020772068C06910F4407FA6
:101E9000204602D0FFF79EFF04E000F05BF82046EA
:101EA00000F0EEF82777E80708D0F00706D02168A1
:101EB0006FF001000861204600F0AEF9280608D551
:101EC000300606D521686FF0800008612046FFF7D4
:101ED00067FE680608D5700606D521686FF04000D9
:101EE0000861204600F099F9A8060AD5B00608D581
:101EF00021686FF0200008612046BDE8F041FFF73F
:101F000050BEBDE8F081000000B585B00021009111
:101F100001910291039100680B49884212D10B484C
:101F2000816941F0040181618069694600F0040023
:101F300004904FF4807000900220019003900448B8
:101F4000FFF73AFA05B000BD002C01400010024036
:101F500000080140704770B5044690F83C00002628
:101F60000D4601280FD0012084F83C006AB1042AF4
:101F70001DD0082A2FD00C2A3FD00126002084F83B
:101F80003C00304670BD022070BD206800F0F6FCB9
:101F90002068816941F0080181612068816921F030
:101FA00004018161206881692A69114311E0206878
:101FB00000F00CFD2068816941F4006181612068B6
:101FC000816921F480618161206881692A6941EA1F
:101FD00002218161D2E7206800F024FD2068C169F8
:101FE00041F00801C1612068C16921F00401C161AB
:101FF0002068C1692A69114311E0206800F03EFDA4
:102000002068C16941F40061C1612068C16921F49F
:102010008061C1612068C1692A6941EA0221C16108
:10202000ACE710B5040003D094F83D0010B107E010
:10203000012010BD002084F83C00204600F01EF86E
:10204000022084F83D00211D206800F03BFC0120A7
:1020500084F8460084F83E0084F83F0084F840008D
:1020600084F8410084F8420084F8430084F8440076
:1020700084F8450084F83D00002010BD7047000042
:10208000064902680B681B689A4206D1007F097AEC
:10209000884202D1014800F077BB70475800002009
:1020A00030B500250446022249B1042912D008297E
:1020B0003ED094F84100012845D0012030BD94F86D
:1020C0003E000128F9D184F83E202068C26842F021
:1020D000020209E094F83F000128EED184F83F2085
:1020E0002068C26842F00402C2600122206800F049
:1020F00025FC1A492068884203D1426C42F4004210
:1021000042642068884208D0B0F1804F05D014495D
:10211000884202D01349884204D1816801F0070146
:10212000062903D0016841F001010160284630BD55
:1021300094F840000128C0D184F840202068C2688B
:1021400042F00802D0E784F841200C2901D0012593
:10215000ECE72068C26842F01002C5E7002C01409D
:10216000000400400008004070B50D0004464FF028
:10217000000607D0042D0AD0082D0DD00C2D10D04C
:1021800001263CE02068C16821F002010DE02068D2
:10219000C16821F0040108E02068C16821F008014D
:1021A00003E02068C16821F01001C16000222946C7
:1021B000206800F0C3FB174B41F2111120688A1010
:1021C000984209D1036A0B4206D1036A134203D134
:1021D000436C23F4004343642068036A0B4206D136
:1021E000016A114203D1016821F00101016001205F
:1021F0003DB1042D08D0082D09D084F841003046A7
:1022000070BD84F83E00FAE784F83F00F7E784F8F1
:102210004000F4E7002C014070477047FEE70000E3
:1022200030B585B000241B480094019402940394B7
:10223000816941F020018161816901F020010491EF
:10224000816941F008018161816901F0080104910F
:10225000816941F00401816180690F4D00F0040043
:10226000049000224FF400512846FFF795F901220F
:1022700091032846FFF790F94FF4C04000900120E9
:10228000CDE901040320039069462846FFF794F83E
:1022900005B030BD00100240000C014010B596B0F2
:1022A00000240F9410941194129413941C2108A8E4
:1022B0001494FEF776F820216846FEF772F8294854
:1022C000274901604721C0E9011440F2E731C0E924
:1022D000031444618461FFF7C3FC08B172B6FEE7E2
:1022E0004FF480500F900FA91E48FFF705FD08B16D
:1022F00072B6FEE71B48FFF794FE08B172B6FEE720
:10230000139413A917481494FFF776FC08B172B61A
:10231000FEE7602008904FF4FA70CDE909040B94B1
:102320000C940D94002208A90E480E94FFF713FE9A
:1023300008B172B6FEE700944FF40050CDE90440B6
:10234000029401940394694606480794FFF72AFC17
:1023500008B172B6FEE70348FFF7D6FD16B010BD10
:10236000002C014010000020FEE7FEE770B50024BD
:102370000021204600F0ECF80025002000F052F982
:102380006D1CEDB2802DF8D3641CE4B2082CEFD3A1
:1023900070BD0000104810B5816986B041F0080199
:1023A000816180690D4C00F00800049011200190BB
:1023B000032003900002009069462046FEF7FCFFD0
:1023C000012211022046FFF7E7F8012251022046C0
:1023D000FFF7E2F806B010BD00100240000C01400B
:1023E0002DE9F047144E002407464FF080084FF4C3
:1023F0000079B51528FA04F23A4049463046FFF70D
:10240000CBF8012229463046FFF7C6F800222946BC
:102410003046FFF7C1F8641CE4B2082CEAD301226D
:1024200029463046FFF7B8F829463046BDE8F04760
:102430000022FFF7B1B80000000C014070B5012286
:102440000B4D540221462846FFF7A6F8012216023A
:1024500031462846FFF7A0F8002221462846FFF71C
:102460009BF831462846BDE870400022FFF794B83B
:10247000000C014070B50A4D4FF400740022214653
:102480002846FFF789F8012211022846FFF784F851
:1024900021462846BDE870400122FFF77DB80000C4
:1024A000000C014010B500204FF47A720021491C45
:1024B0009142FCD3401C9042F8D3FFF76BFFAE2053
:1024C00000F09FF8D52000F09CF8802000F099F8EB
:1024D000A82000F096F83F2000F093F8D32000F0F9
:1024E00090F8002000F08DF8402000F08AF8A1203C
:1024F00000F087F8C82000F084F8DA2000F081F8B6
:10250000122000F07EF8812000F07BF8CF2000F050
:1025100078F8D92000F075F8F12000F072F8DB208F
:1025200000F06FF8302000F06CF8A42000F069F89B
:10253000A62000F066F88D2000F063F8142000F06B
:1025400060F8AF2000F05DF8BDE81040FFF70EBF67
:1025500010B50C4640F0B00000F053F8102040EAEF
:10256000141000F04EF804F00F00BDE8104000F029
:1025700048B800002DE9F0410746CE004000083E73
:10258000801E15464FF0FF38F1B2C0B2FFF7E0FFF2
:102590001148002400EB05152819A0F5805090F88B
:1025A000000E00F03FF8641CE4B2082CF4D308EBF2
:1025B0004700F1B2C0B2FFF7CBFF00242819A0F505
:1025C000805090F8080E00F02DF8641CE4B2082C3E
:1025D000F4D3BDE8F0810000743200082DE9F04129
:1025E00015460E460746002406E03019C1B23846AB
:1025F000FFF7C0FF641CE4B22A5D002AF5D1BDE8F4
:10260000F08110B50446FFF719FF7820FFF7E8FEC8
:102610000020FFF7E5FE2046FFF7E2FEBDE8104090
:10262000FFF728BF10B50446FFF708FF7820FFF733
:10263000D7FE4020FFF7D4FE2046FFF7D1FEBDE8CD
:102640001040FFF717BF70477047F0B40D46DDE943
:102650000541049F079EC360C0E9005207824461A0
:1026600001830023866280F82430036232B1042A99
:1026700006D0082A0BD00C2A04D10AE0012200E07F
:10268000022202722046F0BC0122FEF785BF04221E
:10269000F7E70822F5E700002DE9F04789460446F0
:1026A000DDE9087A90F8241000201E46154600291E
:1026B00066D1C4E907508046A16A4846216300F00C
:1026C000D1FC02D2A06AE06201E0C4F82C90F019BB
:1026D000A84204D368086063281AA06301E0C4E933
:1026E0000D67304600F0AAFC0646D4E90A1000F057
:1026F00039FD0546314600F0BFFBE063384600F087
:102700009DFC0146284600F0B7FB20641D48216B64
:1027100000F0B2FB00F072FC2268411E1268D16228
:102720002268D1606168F9B1042922D008292168A2
:102730004FEA5000096821D0086421680968C1F88F
:102740002480012084F82400218A5246E068FEF7A4
:1027500023FF218B00226069FEF71EFFD4E90001F0
:10276000BDE8F047FFF79CBC216840080968486352
:10277000E3E72168400809688863DEE7C863DCE7AF
:10278000BDE8F08700BADB4910B50446006A401C7A
:102790002062E16988420CD3D4E90001FFF7E4FC30
:1027A000218B01226069FEF7F7FE002084F82400E7
:1027B00010BD626B904207D8012084F82400E16BC1
:1027C000206B00F0EBFA10E0A26B891A814219D855
:1027D000032084F82400216C206B00F0C3FC2063EC
:1027E000A16A00F03FFC01D2A06A20631848216B67
:1027F00000F042FB00F002FCB0F5803F07D34FF63B
:10280000FF7007E0022084F82400E06AEDE7642806
:1028100000D264202268411E1268D1622268D16011
:10282000616849B104290CD0082921684FEA500099
:1028300009680BD0086410BD216840080968486326
:1028400010BD216840080968886310BDC86310BDC9
:1028500000BADB49FEF7ACBE30B58FB02821684620
:10286000FDF79FFD14210AA8FDF79BFD0121080437
:10287000CDE900100024029402250491CDE907500F
:102880004FF4E01009906846FEF7E6FF08B172B613
:10289000FEE70F20CDE90A054FF48060CDE90C403A
:1028A00002210AA80E94FEF71BFF002801D072B681
:1028B000FEE70FB030BD70470148FFF78CBA00004B
:1028C00010000020F0B50268194B1A4C1A4D4FF059
:1028D0008047984205D0B84203D0A04201D0A84218
:1028E00003D122F070064A683243984205D0B842BC
:1028F00003D0A04201D0A84203D122F44074CA6898
:1029000022434C6922F08002224302608A68C2623C
:102910000A688262984201D109690163012141611B
:102920000169C90703D0016921F001010161F0BD0E
:10293000002C0140000400400008004010B501F0E8
:102940001F030121046A99408C430462016A9A4082
:102950001143016210BD10B5846842EA032224F4D9
:102960007F440A432243826010BD826822F07002D5
:102970000A4342F0070181607047000030B5036AE6
:10298000026A22F0010202624268846924F073053F
:102990000C682C4323F002058B682B430A4DA84298
:1029A0000BD123F00805CB6822F440722B434D690C
:1029B00023F0040315438A692A434260846149680D
:1029C0004163036230BD0000002C014030B5026A53
:1029D000036A23F010030362436884690D6824F4DA
:1029E000E64444EA05248D6822F0200242EA0512FA
:1029F0000B4DA8420ED1CD6822F0800242EA0512AA
:102A00004D6923F4406343EA85038D6922F0400257
:102A100043EA85034360846149688163026230BD93
:102A2000002C014030B5036A026A22F4807202620F
:102A30004268C46923F4007324F073050C682C43C6
:102A40008D6843EA05230C4DA8420ED1CD6823F4CE
:102A5000006343EA05234D6922F4405242EA05121D
:102A60008D6923F4806342EA05124260C4614968BB
:102A7000C163036230BD0000002C014030B5046A20
:102A8000026A22F4805202624268C3690D6823F42C
:102A9000E64343EA05238D6824F4005444EA0534F0
:102AA000064DA84204D14D6922F4804242EA8512C3
:102AB0004260C36149680164046230BD002C01407A
:102AC00010B5036A046A24F001040462846924F0E6
:102AD000F00444EA021423F00A020A438461026209
:102AE00010BD10B5036A046A24F0100404628469FE
:102AF00023F0A00324F4704444EA023243EA0111B3
:102B00008261016210BDFEE7490050EAC12018BF92
:102B100004204A0D18BF40F0010040F2FF72B2EBF2
:102B2000515F08BF40F00200012808BF0520704730
:102B30000907090E002804DB00F1E02080F80014EA
:102B4000704700F00F0000F1E02080F8141D70477E
:102B500030380A2801D20120704700207047000059
:102B600090B0FEF72DFDFFF79DFC4FF480405A49D1
:102B70005A4B4210CDE902015949CDE90023002208
:102B800001F14800FFF761FDFFF766FEFFF748FB24
:102B9000FFF784FB524840F2CF710268D162C160F6
:102BA00000684FF47A714163A0264D4CDFF834A1E0
:102BB0004FF4487735464FF0010848344FF4FA791E
:102BC0004748CDE9005833463A4651464830FFF76A
:102BD00063FD18E000F0B6F8CDE9000142A2102133
:102BE0000AA8FDF701FB44A2102104A8236AFDF7FF
:102BF000FBFA01210AAA0846FFF7F0FC04AA01210A
:102C00000220FFF7EBFC94F824000028206BE1D1B0
:102C100000F098F8CDE9000133A210210AA8FDF7D1
:102C2000E3FA35A2102104A8236AFDF7DDFA012199
:102C30000AAA0846FFF7D2FC04AA01210220FFF7E6
:102C4000CDFC4846FEF7A6FB00216800CDE9000157
:102C5000234873007A002C494830FFF71DFD18E027
:102C600000F070F8CDE900011FA210210AA8FDF7BD
:102C7000BBFA21A2102104A8236AFDF7B5FA0121AD
:102C80000AAA0846FFF7AAFC04AA01210220FFF7BE
:102C9000A5FC94F824000028206BE1D100F052F844
:102CA000CDE9000110A210210AA8FDF79DFA12A299
:102CB000102104A8236AFDF797FA01210AAA084601
:102CC000FFF78CFC04AA01210220FFF787FC48468D
:102CD000FEF760FB74E700000000C842000C0140F2
:102CE0001000002000803B4573706565643A252E16
:102CF0003266202020202000737465703A252E3221
:102D000064202020202020000080BB4510B5002931
:102D10000AD00878002807D005487844FDF728FF36
:102D2000002801D0002010BD0248784410BD0000EA
:102D3000FE0B0000F60B00000808A0F500114FEA9A
:102D40003101704743004FEAD30C4FEA3C0C43403B
:102D50001FBF40070CF1605113F0FE4F70471CF08D
:102D6000006F03D100200CF0004170470CF00043CD
:102D700043EA507010B540EACC0000F0A7F900BF5C
:102D8000000000924FEA0001FFF7D6BF4FF000416C
:102D90004FF00000A1F500217047000090EA010FFC
:102DA00048BF81F0004100F1E481421A3CBF801A23
:102DB00089184FEAD0524FF07F4C1CEA410FA2EB2A
:102DC000D15318BF9CEA026F00F03B804FF0004CDB
:102DD0004CEA00204CEA012121FA03FC10EB0C0C18
:102DE0001ED202F1FF325FEA1C2040EBC25038BF16
:102DF00070471CF07F0F4FEA400C18BFBCF17F4FAB
:102E000038BF7047C3F12003994008BF20F001008C
:102E1000BCF17F4F38BF7047A0F1C04000F09CB9B3
:102E20004FEA3C00000A40EBC25028BF1CF0FF0FE5
:102E30004FEA400CE6D018BFBCF17F4F38BF704757
:102E4000EAE79CEA026F05D010EA5C0F08BF00F0C9
:102E50000040704710B500F039F900BF64FBBE3E7A
:102E6000401058BFC0F14040491058BFC1F1404127
:102E70008142EFF3008070474FF47F0C1CEAD012C0
:102E80001EBF1CEAD11392EA0C0F93EA0C0F00F05C
:102E9000858090EA010F48BF42F4807240F4000C34
:102EA00041F400002CF07F4120F07F4000B58142CA
:102EB000A2EB03020FF2081CACEB504EC0F1000075
:102EC0009EF800E04FEA4E0E00FB0EFC38BF4900B2
:102ED0004FEA2C1C02F5FA020CFB0EF34FEACE1E51
:102EE0004FEA112C4FEAC1210EEB635E42EB224206
:102EF0000EFB0CFC4FEA1C5300FB03114FEA112C94
:102F00004FEA01310EFB0CFC4FEADC4C00FB0C11CC
:102F1000C14228BF09184CEB03335DF804EB10EBFA
:102F2000410143EBC250B2F57C0F38BF704729D541
:102F300012F0F00F1CBF00F1C04000F000407047DD
:102F4000008182838485868788898B8C8D8E8F9182
:102F50009293959697999A9C9D9FA0A2A3A5A7A8A6
:102F6000AAACAEB0B2B3B5B7B9BCBEC0C2C5C7C9D2
:102F7000CCCED1D4D7D9DCDFE2E6E9ECF0F3F7FA36
:102F8000FE0000004FEA400C0CF1807CBCF17E4F4B
:102F900028BF7047B0F1C04000F0DEB890EA010FE2
:102FA0000CEAD11348BF42F48072624538BF6345D2
:102FB00007D213F47F0F16D080EA010000F0004022
:102FC000704710B500F082F8097EFC3E00F005B8AD
:102FD00080EA010000F00040704780EA010000F044
:102FE000004000F0B9B812F47F0F04BF02487047E8
:102FF00080EA010000F0B0B80000C07FC10DD1F13F
:103000009E0206DB4FEA002343F0004323FA02F05E
:103010007047004207D54FEA4001B1F1FE4F02D29E
:103020004FF00000704710B500F050F8499224802E
:10303000002070476FEA200070470000B0FA80F36C
:1030400010FA03F2C3F19D030AD0D90501EB122057
:10305000530638BF704700F1010008BF20F001009F
:103060007047000050EA010C00F113801CF5000FBE
:1030700058BFBCF5000F01D48842704707D710F540
:10308000000F58BF11F5000F15D4884270478942D0
:1030900070471CF5000F04D5BCF5000FF7D5814231
:1030A00070474FF0807C1CEB400F38BF1CEB410F8A
:1030B00001D28142704710B500F008F8922449000F
:1030C0004FF000504FF08051FFF7CABE0EF1020ED4
:1030D0002EF0030E5EF8044B244204D44FEA410262
:1030E000B2F17F4F11D84FEA4003B3F17F4F0CD8B4
:1030F0000ED14FEAD07CB2F17F4F0CEB4C0C0CF1AF
:10310000020C08BF4CEBD17C04E04FF0080C01E04E
:103110004FEAD17C0CEB4C0324FA03F404F00704CF
:10312000B4F1040C06D20EEB840CBDE810404CF058
:10313000010C6047DFE80CF0070802024FF0004086
:10314000A0F5800010BD0846420018BFD2F1807281
:1031500088BF00F0004010BDFF2141EAD050C005FB
:103160007047000090EA010F48BF81F000413FF531
:103170001CAE421A04D882F00042A0EB02001144B7
:103180004FEAD0524FF07F4C1CEA410FA2EBD153D3
:1031900018BF9CEA026F4AD04FF0004C4CEA002066
:1031A0004CEA012121FA03FCB0EB0C0C0FD412F015
:1031B000FE0F36D05FEA4C001DD5001240EBC25026
:1031C00038BF70471CF03F0F18BF70470BE0A2F1EB
:1031D00001025FEA1C2040EBC25038BF70471CF070
:1031E0007F0F18BF7047C3F12003994014BF401EE2
:1031F00020F00100704780084FEA122308BF704793
:10320000B0FA80FCA2EB0C02CCF1280C60FA0CF0B6
:1032100093EA122F04BF00EBC25070474FEAC3700D
:103220007047130A5FEADC1008BF7047F6E79CEAB4
:10323000026F04D010EA5C0F08BF0020704710B581
:10324000FFF744FF40DFF63E81F000407047FDF796
:1032500004BA010202030405060708090A0B0C0D53
:103260000E0F101000000000000000000102030417
:103270000607080900000000000000000000000030
:1032800000000000000000F8000000000000003313
:103290003000000000100C06100C060000000000BA
:1032A0000000000040C07840C0784000043F0404A3
:1032B0003F040400007088FC08300000001820FF64
:1032C000211E0000F008F000E018000000211C039F
:1032D0001E211E0000F00888700000001E2123241B
:1032E0001927211010160E00000000000000000039
:1032F00000000000000000E01804020000000007C9
:103300001820400000020418E000000000402018CF
:1033100007000000404080F0804040000202010FA2
:1033200001020200000000F0000000000101011F86
:1033300001010100000000000000000080B07000EA
:10334000000000000000000000000000000101017A
:103350000101010100000000000000000030300009
:1033600000000000000000008060180400601806E3
:103370000100000000E010080810E000000F10201D
:1033800020100F00001010F8000000000020203F67
:1033900020200000007008080888700000302824F1
:1033A0002221300000300888884830000018202092
:1033B00020110E000000C02010F8000000070424B7
:1033C000243F240000F808888808080000192120FC
:1033D00020110E0000E0108888180000000F112056
:1033E00020110E0000380808C83808000000003F0F
:1033F000000000000070880808887000001C22216E
:1034000021221C0000E010080810E000000031221A
:1034100022110F00000000C0C000000000000030BA
:10342000300000000000008000000000000080600C
:10343000000000000000804020100800000102048D
:103440000810200040404040404040000404040474
:103450000404040000081020408000000020100830
:1034600004020100007048080808F0000000003065
:1034700036010000C030C828E810E00007182724F3
:1034800023140B000000C038E0000000203C2302A1
:103490000227382008F8888888700000203F202004
:1034A00020110E00C0300808080838000718202036
:1034B0002010080008F808080810E000203F20202D
:1034C00020100F0008F88888E8081000203F20200E
:1034D0002320180008F88888E8081000203F200002
:1034E00003000000C030080808380000071820203A
:1034F000221E020008F808000008F808203F2101F9
:1035000001213F20000808F8080800000020203FA3
:103510002020000000000808F8080800C080808013
:103520007F00000008F888C028180800203F20010C
:103530002638200008F8080000000000203F202066
:103540002020300008F8F800F8F80800203F003F7D
:10355000003F200008F830C00008F808203F200095
:1035600007183F00E01008080810E0000F102020A6
:1035700020100F0008F808080808F000203F21017B
:1035800001010000E01008080810E0000F182424D2
:1035900038504F0008F8888888887000203F200045
:1035A000030C3020007088080808380000382021FB
:1035B00021221C00180808F8080818000000203F05
:1035C0002000000008F808000008F808001F20206C
:1035D00020201F000878880000C83808000007383D
:1035E0000E010000F80800F80008F800033C07008E
:1035F000073C0300081868808068180820302C03F6
:10360000032C30200838C800C83808000000203FCC
:103610002000000010080808C838080020382621BB
:1036200020201800000000FE020202000000007FBF
:1036300040404000000C30C00000000000000001CD
:103640000638C00000020202FE00000000404040B8
:103650007F000000000004020202040000000000DD
:10366000000000000000000000000000808080805A
:103670008080808000020204000000000000000042
:1036800000000000000080808080000000192422DB
:1036900022223F2008F8008080000000003F112017
:1036A00020110E000000008080800000000E11201C
:1036B00020201100000000808088F800000E1120FA
:1036C00020103F200000808080800000001F222208
:1036D00022221300008080F0888888180020203F74
:1036E000202000000000808080808000006B949487
:1036F0009493600008F8008080800000203F210043
:1037000000203F2000809898000000000020203F0B
:1037100020200000000000809898000000C08080F9
:10372000807F000008F8000080808000203F240295
:103730002D302000000808F8000000000020203F85
:10374000202000008080808080808000203F20003A
:103750003F20003F8080008080800000203F2100CB
:1037600000203F200000808080800000001F20207B
:1037700020201F00808000808000000080FFA120AA
:1037800020110E000000008080808000000E1120BB
:1037900020A0FF80808080008080800020203F214A
:1037A00020000100000080808080800000332424FD
:1037B00024241900008080E0808000000000001FA9
:1037C000202000008080000000808000001F20205A
:1037D00020103F20808080000080808000010E301B
:1037E0000806010080800080008080800F300C037C
:1037F0000C300F0000808000808080000020312E7F
:103800000E312000808080000080808080818E705A
:103810001806010000808080808080000021302C0C
:103820002221300000000000807C02020000000025
:10383000003F404000000000FF00000000000000CA
:10384000FF0000000002027C800000000040403FBA
:103850000000000000060101020204040000000054
:103860000000000002400000000000A00000000076
:1038700005400000000000C8000000000C400000EF
:103880000000409C00000000194000000020BCBE69
:103890000000000034400000BFC91B8E000000047F
:1038A000B5400000504BCFD06607E2CF01000000CA
:1038B0006C4100003E8251AADFEEA73401000000F7
:1038C000D9420000DCB5A0E23A301F97FFFFFFFFAE
:1038D000B4450000FD25A0C8E9A3C14FFFFFFFFFCD
:1038E000FF3F00000000008000000000FF3F0000DC
:1038F00000000080000000003439000800000020B3
:1039000010000000280100084439000810000020C1
:10391000F0060000440100081C0000004300000005
:10392000F8FFFFFF0C0000000E0000000F00000079
:103930002E00000001000000100000000000000048
:0439400000127A00F7
:04000005080000ED02
:00000001FF
